:100C3C00101F010203FB040506FD070809FA00D189
:100C4C000DFB112F39393939207265766F20726599
:100C5C0077736E6100104048692077656C636F6D27
:100C6C006520696E746F001050636F756E746572D9
:090C7C002062792079756D6F008A
:0C0D2400C2A5C2A78D80D2A77FE87E0385
:0B0D3000EF1FAC0670011E4C70F62295
:070D3B007FCF120D427F047F
:0D0D4200AD07120D2CC2A6120D24C2A7226F
:100D0000E47B0AFAF9F8AF19AE18AD17AC16120C5D
:050D100086EB2430FF1A
:0F0D1500AD07120D2CD2A6120D24C2A7C2A62222
:100BCC007FDC7E05120D307F38120D427FF47E01E2
:100BDC00120D307F38120D427FF47E01120D307FE2
:100BEC0038120D427FF47E01120D307F38120D4207
:100BFC007F08120D427F01120D427F06120D427FBB
:100C0C000C120D42E4F50BF50DF509F508F511F58F
:100C1C0010F50FF50EF515F514F513F512F519F58C
:100C2C0018F517F516F51DF51CF51BF51AC2B722AC
:100CCA00E4F50A7440250AF8E6FF120D15050AE54F
:100CDA000AC3940F40ED7FC0120D42E4F5607450D0
:100CEA002560F8E6FF120D150560E560C3940F4014
:060CFA00ED7E007F0122E7
:100003007590FEE59064FE70030200EE120D2CE580
:100013009064FE6028E59054F0F50B2490601B2457
:10002300C0601224E0600924F07012E4F50D800D25
:10003300750D018008750D028003750D03E590B4FD
:10004300FEFBE50D600D64016009E50D64026003CC
:100053000200D5E5097039D2B77F0AFEFDFCAB116A
:10006300AA10A90FA80E1209FFC004A905AA06AB7E
:1000730007741F250DF8E6FFE4FCFDFED000EB2F0F
:10008300F511EE3AF510ED39F50FEC38F50E804227
:10009300D2B7120D2CC2B7120D2CD2B7E47F0AFED1
:1000A300FDFCAB15AA14A913A8121209FFC004A9D9
:1000B30005AA06AB07741F250DF8E6FFE4FCFDFE59
:1000C300D000EB2FF515EE3AF514ED39F513EC38B6
:1000D300F512E50DB40308C2B7750901750801747B
:1000E3001F250DF8E62430FF120D157590FDE590E0
:1000F30064FD70030201CD120D2CE59064FD6028B0
:10010300E59054F0F50B2490601B24C0601224E0AA
:10011300600924F07012750D04800D750D058008BB
:10012300750D068003750D07E590B4FDFBE50D64C1
:1001330004600CE50D64056006E50D64067077E563
:10014300097039D2B77F0AFEFDFCAB11AA10A90FC3
:10015300A80E1209FFC004A905AA06AB07741F2540
:100163000DF8E6FFE4FCFDFED000EB2FF511EE3AAF
:10017300F510ED39F50FEC38F50E8042D2B7E47F78
:100183000AFEFDFCAB15AA14A913A8121209FFC09D
:1001930004A905AA06AB07741F250DF8E6FFE4FCC6
:1001A300FDFED000EB2FF515EE3AF514ED39F513FE
:1001B300EC38F5128008C2B7750901750802741F7F
:1001C300250DF8E62430FF120D157590FBE59064BC
:1001D300FB70030202AC120D2CE59064FB6028E572
:1001E3009054F0F50B2490601B24C0601224E0604F
:1001F3000924F07012750D08800D750D09800875BE
:100203000D0A8003750D0BE590B4FBFBE50D640847
:10021300600CE50D64096006E50D640A7077E50975
:100223007039D2B77F0AFEFDFCAB11AA10A90FA843
:100233000E1209FFC004A905AA06AB07741F250DFA
:10024300F8E6FFE4FCFDFED000EB2FF511EE3AF5E6
:1002530010ED39F50FEC38F50E8042D2B7E47F0A82
:10026300FEFDFCAB15AA14A913A8121209FFC004C2
:10027300A905AA06AB07741F250DF8E6FFE4FCFDEC
:10028300FED000EB2FF515EE3AF514ED39F513EC2E
:1002930038F5128008C2B7750901750803741F2564
:1002A3000DF8E62430FF120D157590F7E59064F70D
:1002B3007003020799120D2CE59064F76028E5900E
:1002C30054F0F50B2490601B24C0601224E06009F5
:1002D30024F07012750D0C800D750D0D8008750DD1
:1002E3000E8003750D0FE590B4F7FBE50D24F37055
:1002F300030203831470030203B11470030203A403
:1003030024036003020799E5097039D2B77F0AFE17
:10031300FDFCAB11AA10A90FA80E1209FFC004A976
:1003230005AA06AB07741F250DF8E6FFE4FCFDFEE6
:10033300D000EB2FF511EE3AF510ED39F50FEC384F
:10034300F50E8038D2B7E47F0AFEFDFCAB15AA1484
:10035300A913A8121209FFC004A905AA06AB0774C2
:100363001F250DF8E6FFE4FCFDFED000EB2FF5158D
:10037300EE3AF514ED39F513EC38F5127F30802B96
:100383007F01120D42E4F511F510F50FF50EF51589
:10039300F514F513F512F519F518F517F516020707
:1003A30095C2B77509017508047F2F020D15E5087D
:1003B30064016003020477120D3BE5112515F5195D
:1003C300E5103514F518E50F3513F517E50E35125D
:1003D300F516AF19AE18AD17FC4D4E4F7008120D40
:1003E3003B7F30120D15AF19AE18AD17AC16EC4D9F
:1003F3004E4F6033E47F0F7E27FDFCAB19AA18A98B
:1004030017A816D3120A5C501E120D00AF19AE18AE
:10041300AD17AC16E47B0AFAF9F8120C868F198E25
:10042300188D178C1680BFE47F0F7E27FDFCAB1958
:10043300AA18A917A816D3120A5C4016E4F50C747F
:100443002F250CF8E6FF120D15050CE50CD39410BF
:1004530040ED7F3D120D15E4F511F510F50FF50E86
:10046300F515F514F513F512F519F518F517F51635
:10047300F509F508E50864026003020583120D3BE4
:10048300AF15AE14AD13AC12AB11AA10A90FA80E81
:10049300D3120A5C401AE5119515F519E510951468
:1004A300F518E50F9513F517E50E9512F516801956
:1004B300C3E5159511F519E5149510F518E5139590
:1004C3000FF517E512950EF516AF19AE18AD17AC6B
:1004D30016EC4D4E4F7008120D3B7F30120D15AFC9
:1004E30019AE18AD17AC16EC4D4E4F6033E47F0FC9
:1004F3007E27FDFCAB19AA18A917A816D3120A5C0C
:10050300501E120D00AF19AE18AD17AC16E47B0ADE
:10051300FAF9F8120C868F198E188D178C1680BF76
:10052300E47F0F7E27FDFCAB19AA18A917A816D3E1
:10053300120A5C4016E4F50C742F250CF8E6FF1242
:100543000D15050CE50CD3941040EDAF15AE14ADAD
:1005530013AC12AB11AA10A90FA80EC3120A5C5058
:10056300057F2D120D157F3D120D15E4F511F510C4
:10057300F50FF50EF515F514F513F512F509F50854
:10058300E50864036003020660120D3BAF15AE1469
:10059300AD13AC12AB11AA10A90FA80E1209FF805C
:1005A3004CAF19AE18AD17AC16EC4D4E4F60067F2D
:1005B30001C00780047F00C007E47F0F7E27FDFC96
:1005C300AB19AA18A917A816D3120A5C50047E0106
:1005D30080027E00D0E05E601E120D00AF19AE18DF
:1005E300AD17AC16E47B0AFAF9F8120C868F198E54
:1005F300188D178C1680AAE47F0F7E27FDFCAB199C
:10060300AA18A917A816D3120A5C4016E4F50C74AD
:100613002F250CF8E6FF120D15050CE50CD39410ED
:1006230040EDAF11AE10AD0FAC0EEC4D4E4F600E62
:10063300AF15AE14AD13AC12EC4D4E4F70057F30B9
:10064300120D157F3D120D15E4F511F510F50FF59B
:100653000EF515F514F513F512F509F508E508641B
:10066300046003020799F51E120D3BAF11AE10ADE6
:100673000FAC0EEC120940C004C005C006C007AFA2
:1006830015AE14AD13AC12EC120940A804A905AAC7
:1006930006AB07D007D006D005D0041208A37B0011
:1006A3007A40791C784612079A12097E8F198E18A0
:1006B3008D178C16AF19AE18AD17AC16EC4D4E4F07
:1006C30060407FF07EB97DF57C05AB19AA18A917A8
:1006D300A816D3120A5C502A051E120D00AF19AEDC
:1006E30018AD17AC16E47B0AFAF9F8120C868F19C9
:1006F3008E188D178C16E51EB404B97F2E120D15B6
:1007030080B27FF07EB97DF57C05AB19AA18A917D5
:10071300A816D3120A5C4016E4F50C742F250CF8C6
:10072300E6FF120D15050CE50CD3941040EDAB1547
:10073300AA14A913A812AF11AE10AD0FAC0E120C70
:1007430086E47B01FAF9F8D3120A5C40057F301284
:100753000D15AF15AE14AD13AC12EC4D4E4F701C0E
:10076300120D3B7F52120D157F4F120D157F521242
:100773000D157F52120D157F45120D157F3D120D7C
:1007830015E4F511F510F50FF50EF515F514F51340
:07079300F512F509F508223B
:0B0D4F00120BCC120CCA12000380FB38
:10079A00EC4D6011E8497017ED33EC3304600DE459
:1007AA00FCFFFEFD22E933E8330470F80209EA127D
:1007BA0009B558046009E4CC24815006285009027E
:1007CA0009F42840030209F1C0E0EB4A7044B980F9
:1007DA0006D0E0FB0209E0EF4E701CBD8008EBFF7B
:1007EA00EAFEE9FD80EBE98DF0A4FEE5F00208835C
:1007FA00E9CDF9EAFEEBFFEF89F0A4FCE5F0CE893A
:10080A00F0A42EFFE435F0CD89F0A42DFEE435F0F6
:10081A008067EF4E7005BD80D780C3EF8BF0A4AC24
:10082A00F0EE8BF0A42CFCE435F0F8EF8AF0A42C5F
:10083A00E5F038FCE433CB8DF0A42CFCE5F03BF872
:10084A00EE8AF0A42CFCE5F038F8E433CF89F0A462
:10085A002CFCE5F038CF3400CE89F0A42FFFE5F068
:10086A003EFEE433C98DF0A42EFEE5F039CD8AF0C0
:10087A00A42FFFE5F03EFEE43DFD33D0E0FB500738
:10088A000BBB000F0209F4EC2CFCEF33FFEE33FE36
:06089A00ED33FD0209CC64
:1008A0000209F4EC5D046005E8590470030209EAEA
:1008B0001209B5580460F6EC4860F2EC7004FDFED5
:1008C000FF22C860DB2481C85009C398600250062B
:1008D0000209F19850CAF582E9294B4A7005AB82AA
:1008E0000209E075F0007C1A7880C3EF9BEE9AED68
:1008F00099400DC3EF9BFFEE9AFEED99FDE842F0A3
:10090000DC23ACF0D0E0FFD0E0FED0E0FDAB8220F5
:10091000E7101BEB60BAEC2CFCEF33FFEE33FEED7F
:1009200033FD0209CCE803F830E705C0F075F000AC
:10093000EF2FFFEE33FEED33FD40B830E7C280AA63
:1009400075F020800E75F010800575F0087D007E32
:10095000007F003392D530D503120A4EEC3340109D
:10096000EF33FFEE33FEED33FDEC33FCD5F0ED223B
:0E097000E5F0247EA2D513CC92E7CDCEFF2277
:10097E00EDD2E7CD33EC3392D524814006E4FFFE71
:10098E00FDFC22FCE4CFCECDCC24E0501174FF80D0
:10099E00EDC3CC13CCCD13CDCE13CECF13CF04706D
:0709AE00F030D5DE020A4E15
:1009B500E9D2E7C933E833F892D5EDD2E7CD33EC88
:0709C50033FC5002B2D52201
:1009CC00EC30E7100FBF000C0EBE00080DBD00048C
:1009DC000BEB6014A2D5EB13FCED92E7FD2274FF38
:1009EC00FCFDFEFF22E480F8A2D574FF13FC7D8091
:0309FC00E480EFA5
:03000000020B40B0
:0C0B4000787FE4F6D8FD758160020B8719
:1009FF00E88FF0A4CC8BF0A42CFCE98EF0A42CFC97
:100A0F008AF0EDA42CFCEA8EF0A4CDA8F08BF0A414
:100A1F002DCC3825F0FDE98FF0A42CCD35F0FCEB73
:100A2F008EF0A4FEA9F0EB8FF0A4CFC5F02ECD3938
:0F0A3F00FEE43CFCEAA42DCE35F0FDE43CFC22A5
:100C8600C2D5E830E70FB2D5E4C39BFBE49AFAE499
:100C960099F9E498F8EC30E717B2D5120CBC120AB1
:100CA600AEE4C39BFBE49AFAE499F9E498F880036E
:100CB600120AAE30D50DE4C39FFFE49EFEE49DFD0F
:040CC600E49CFC228C
:0E0A4E00C3E49FFFE49EFEE49DFDE49CFC22B9
:100A5C00EB9FF5F0EA9E42F0E99D42F0EC6480C811
:060A6C0064809845F022B1
:100B4C00020D4FE493A3F8E493A34003F68001F263
:100B5C0008DFF48029E493A3F85407240CC8C333AA
:100B6C00C4540F4420C8834004F456800146F6DF79
:100B7C00E4800B0102040810204080900C3CE47EC1
:100B8C00019360BCA3FF543F30E509541FFEE4936E
:100B9C00A360010ECF54C025E060A840B8E493A335
:100BAC00FAE493A3F8E493A3C8C582C8CAC583CA60
:100BBC00F0A3C8C582C8CAC583CADFE9DEE780BE18
:010C8500006E
:100A720075F008758200EF2FFFEE33FECD33CDCC3B
:100A820033CCC58233C5829BED9AEC99E5829840BE
:100A92000CF582EE9BFEED9AFDEC99FC0FD5F0D69B
:100AA200E4CEFBE4CDFAE4CCF9A88222B800C1B9C5
:100AB2000059BA002DEC8BF084CFCECDFCE5F0CB03
:100AC200F97818EF2FFFEE33FEED33FDEC33FCEB3C
:100AD20033FB10D703994004EB99FB0FD8E5E4F9F7
:100AE200FA227818EF2FFFEE33FEED33FDEC33FCE4
:100AF200C933C910D7059BE99A4007EC9BFCE99AD8
:100B0200F90FD8E0E4C9FAE4CCFB2275F010EF2F1C
:100B1200FFEE33FEED33FDCC33CCC833C810D7071C
:100B22009BEC9AE899400AED9BFDEC9AFCE899F857
:0E0B32000FD5F0DAE4CDFBE4CCFAE4C8F922EA
:00000001FF
